{
  "contractName": "Radici",
  "abi": [
    {
      "anonymous": false,
      "inputs": [
        {
          "indexed": false,
          "internalType": "uint256",
          "name": "id",
          "type": "uint256"
        },
        {
          "indexed": false,
          "internalType": "string",
          "name": "spec",
          "type": "string"
        },
        {
          "indexed": false,
          "internalType": "string",
          "name": "value",
          "type": "string"
        },
        {
          "indexed": false,
          "internalType": "string",
          "name": "ipfs",
          "type": "string"
        },
        {
          "indexed": false,
          "internalType": "address",
          "name": "owner",
          "type": "address"
        }
      ],
      "name": "EntryAdded",
      "type": "event"
    },
    {
      "anonymous": false,
      "inputs": [
        {
          "indexed": false,
          "internalType": "uint256",
          "name": "id",
          "type": "uint256"
        },
        {
          "indexed": false,
          "internalType": "string",
          "name": "spec",
          "type": "string"
        },
        {
          "indexed": false,
          "internalType": "string",
          "name": "value",
          "type": "string"
        },
        {
          "indexed": false,
          "internalType": "string",
          "name": "ipfs",
          "type": "string"
        },
        {
          "indexed": false,
          "internalType": "address",
          "name": "owner",
          "type": "address"
        }
      ],
      "name": "EntryEdited",
      "type": "event"
    },
    {
      "inputs": [
        {
          "internalType": "string",
          "name": "_spec",
          "type": "string"
        },
        {
          "internalType": "string",
          "name": "_value",
          "type": "string"
        },
        {
          "internalType": "string",
          "name": "_ipfs",
          "type": "string"
        }
      ],
      "name": "createEntry",
      "outputs": [],
      "stateMutability": "nonpayable",
      "type": "function"
    },
    {
      "inputs": [
        {
          "internalType": "uint256",
          "name": "id",
          "type": "uint256"
        }
      ],
      "name": "getOwnerOf",
      "outputs": [
        {
          "internalType": "address",
          "name": "",
          "type": "address"
        }
      ],
      "stateMutability": "view",
      "type": "function",
      "constant": true
    },
    {
      "inputs": [],
      "name": "getEntryCount",
      "outputs": [
        {
          "internalType": "uint256",
          "name": "",
          "type": "uint256"
        }
      ],
      "stateMutability": "view",
      "type": "function",
      "constant": true
    },
    {
      "inputs": [
        {
          "internalType": "uint256",
          "name": "id",
          "type": "uint256"
        },
        {
          "internalType": "string",
          "name": "_value",
          "type": "string"
        }
      ],
      "name": "reviewEntry",
      "outputs": [],
      "stateMutability": "nonpayable",
      "type": "function"
    },
    {
      "inputs": [
        {
          "internalType": "uint256",
          "name": "id",
          "type": "uint256"
        }
      ],
      "name": "getEntry",
      "outputs": [
        {
          "internalType": "string",
          "name": "",
          "type": "string"
        },
        {
          "internalType": "string",
          "name": "",
          "type": "string"
        },
        {
          "internalType": "string",
          "name": "",
          "type": "string"
        },
        {
          "internalType": "address",
          "name": "",
          "type": "address"
        }
      ],
      "stateMutability": "view",
      "type": "function",
      "constant": true
    }
  ],
  "bytecode": "0x60806040526000805534801561001457600080fd5b50610f1a806100246000396000f3fe608060405234801561001057600080fd5b50600436106100575760003560e01c806301e09a051461005c5780637a360e65146100785780638363871014610096578063b8ba58a5146100c6578063bae78d7b146100e2575b600080fd5b61007660048036038101906100719190610af0565b610115565b005b6100806104ee565b60405161008d9190610c10565b60405180910390f35b6100b060048036038101906100ab9190610ac7565b6104f7565b6040516100bd9190610b9b565b60405180910390f35b6100e060048036038101906100db9190610a30565b610537565b005b6100fc60048036038101906100f79190610ac7565b6106ae565b60405161010c9493929190610bb6565b60405180910390f35b600081511161012357600080fd5b6000600160008481526020019081526020016000206040518060a00160405290816000820154815260200160018201805461015d90610d83565b80601f016020809104026020016040519081016040528092919081815260200182805461018990610d83565b80156101d65780601f106101ab576101008083540402835291602001916101d6565b820191906000526020600020905b8154815290600101906020018083116101b957829003601f168201915b505050505081526020016002820180546101ef90610d83565b80601f016020809104026020016040519081016040528092919081815260200182805461021b90610d83565b80156102685780601f1061023d57610100808354040283529160200191610268565b820191906000526020600020905b81548152906001019060200180831161024b57829003601f168201915b5050505050815260200160038201805461028190610d83565b80601f01602080910402602001604051908101604052809291908181526020018280546102ad90610d83565b80156102fa5780601f106102cf576101008083540402835291602001916102fa565b820191906000526020600020905b8154815290600101906020018083116102dd57829003601f168201915b505050505081526020016004820160009054906101000a900473ffffffffffffffffffffffffffffffffffffffff1673ffffffffffffffffffffffffffffffffffffffff1673ffffffffffffffffffffffffffffffffffffffff16815250509050806080015173ffffffffffffffffffffffffffffffffffffffff163373ffffffffffffffffffffffffffffffffffffffff161461039757600080fd5b6040518060a001604052808481526020018260200151815260200183815260200182606001518152602001826080015173ffffffffffffffffffffffffffffffffffffffff1681525060016000858152602001908152602001600020600082015181600001556020820151816001019080519060200190610419929190610910565b506040820151816002019080519060200190610436929190610910565b506060820151816003019080519060200190610453929190610910565b5060808201518160040160006101000a81548173ffffffffffffffffffffffffffffffffffffffff021916908373ffffffffffffffffffffffffffffffffffffffff1602179055509050507f2ffc32b63232f9ce51c657f15b032dac74b9417abb807527d0b11700ad42117883826020015184846060015185608001516040516104e1959493929190610c2b565b60405180910390a1505050565b60008054905090565b60006001600083815260200190815260200160002060040160009054906101000a900473ffffffffffffffffffffffffffffffffffffffff169050919050565b600082511161054557600080fd5b600081511161055357600080fd5b60008081548092919061056590610de6565b91905055506040518060a0016040528060005481526020018481526020018381526020018281526020013373ffffffffffffffffffffffffffffffffffffffff1681525060016000805481526020019081526020016000206000820151816000015560208201518160010190805190602001906105e3929190610910565b506040820151816002019080519060200190610600929190610910565b50606082015181600301908051906020019061061d929190610910565b5060808201518160040160006101000a81548173ffffffffffffffffffffffffffffffffffffffff021916908373ffffffffffffffffffffffffffffffffffffffff1602179055509050507fdfc0af4ea12bb36c9c84ea697b46e24f8f56fca67812aca3ac28d5cbe56deed4600054848484336040516106a1959493929190610c2b565b60405180910390a1505050565b6060806060600080600160008781526020019081526020016000206040518060a0016040529081600082015481526020016001820180546106ee90610d83565b80601f016020809104026020016040519081016040528092919081815260200182805461071a90610d83565b80156107675780601f1061073c57610100808354040283529160200191610767565b820191906000526020600020905b81548152906001019060200180831161074a57829003601f168201915b5050505050815260200160028201805461078090610d83565b80601f01602080910402602001604051908101604052809291908181526020018280546107ac90610d83565b80156107f95780601f106107ce576101008083540402835291602001916107f9565b820191906000526020600020905b8154815290600101906020018083116107dc57829003601f168201915b5050505050815260200160038201805461081290610d83565b80601f016020809104026020016040519081016040528092919081815260200182805461083e90610d83565b801561088b5780601f106108605761010080835404028352916020019161088b565b820191906000526020600020905b81548152906001019060200180831161086e57829003601f168201915b505050505081526020016004820160009054906101000a900473ffffffffffffffffffffffffffffffffffffffff1673ffffffffffffffffffffffffffffffffffffffff1673ffffffffffffffffffffffffffffffffffffffff1681525050905080602001518160400151826060015183608001519450945094509450509193509193565b82805461091c90610d83565b90600052602060002090601f01602090048101928261093e5760008555610985565b82601f1061095757805160ff1916838001178555610985565b82800160010185558215610985579182015b82811115610984578251825591602001919060010190610969565b5b5090506109929190610996565b5090565b5b808211156109af576000816000905550600101610997565b5090565b60006109c66109c184610cb8565b610c93565b9050828152602081018484840111156109de57600080fd5b6109e9848285610d41565b509392505050565b600082601f830112610a0257600080fd5b8135610a128482602086016109b3565b91505092915050565b600081359050610a2a81610ecd565b92915050565b600080600060608486031215610a4557600080fd5b600084013567ffffffffffffffff811115610a5f57600080fd5b610a6b868287016109f1565b935050602084013567ffffffffffffffff811115610a8857600080fd5b610a94868287016109f1565b925050604084013567ffffffffffffffff811115610ab157600080fd5b610abd868287016109f1565b9150509250925092565b600060208284031215610ad957600080fd5b6000610ae784828501610a1b565b91505092915050565b60008060408385031215610b0357600080fd5b6000610b1185828601610a1b565b925050602083013567ffffffffffffffff811115610b2e57600080fd5b610b3a858286016109f1565b9150509250929050565b610b4d81610d05565b82525050565b6000610b5e82610ce9565b610b688185610cf4565b9350610b78818560208601610d50565b610b8181610ebc565b840191505092915050565b610b9581610d37565b82525050565b6000602082019050610bb06000830184610b44565b92915050565b60006080820190508181036000830152610bd08187610b53565b90508181036020830152610be48186610b53565b90508181036040830152610bf88185610b53565b9050610c076060830184610b44565b95945050505050565b6000602082019050610c256000830184610b8c565b92915050565b600060a082019050610c406000830188610b8c565b8181036020830152610c528187610b53565b90508181036040830152610c668186610b53565b90508181036060830152610c7a8185610b53565b9050610c896080830184610b44565b9695505050505050565b6000610c9d610cae565b9050610ca98282610db5565b919050565b6000604051905090565b600067ffffffffffffffff821115610cd357610cd2610e8d565b5b610cdc82610ebc565b9050602081019050919050565b600081519050919050565b600082825260208201905092915050565b6000610d1082610d17565b9050919050565b600073ffffffffffffffffffffffffffffffffffffffff82169050919050565b6000819050919050565b82818337600083830152505050565b60005b83811015610d6e578082015181840152602081019050610d53565b83811115610d7d576000848401525b50505050565b60006002820490506001821680610d9b57607f821691505b60208210811415610daf57610dae610e5e565b5b50919050565b610dbe82610ebc565b810181811067ffffffffffffffff82111715610ddd57610ddc610e8d565b5b80604052505050565b6000610df182610d37565b91507fffffffffffffffffffffffffffffffffffffffffffffffffffffffffffffffff821415610e2457610e23610e2f565b5b600182019050919050565b7f4e487b7100000000000000000000000000000000000000000000000000000000600052601160045260246000fd5b7f4e487b7100000000000000000000000000000000000000000000000000000000600052602260045260246000fd5b7f4e487b7100000000000000000000000000000000000000000000000000000000600052604160045260246000fd5b6000601f19601f8301169050919050565b610ed681610d37565b8114610ee157600080fd5b5056fea2646970667358221220dc6ee28cd9b187e8f2cd27c39fc0f6a5b764a318ccae66a97dac5fc26512e29f64736f6c63430008030033",
  "immutableReferences": {},
  "source": "// SPDX-License-Identifier: UNLICENSED\npragma solidity ^0.8.3;\n\ncontract Radici {\n    uint private entryCount = 0;\n    mapping(uint => Entry) private entries;\n\n    struct Entry {\n        uint id;\n        string spec;\n        string value;\n        string ipfs;\n        address owner;\n    }\n\n    event EntryAdded(\n        uint id,\n        string spec,\n        string value,\n        string ipfs,\n        address owner\n    );\n\n    event EntryEdited(\n        uint id,\n        string spec,\n        string value,\n        string ipfs,\n        address owner\n    );\n\n    function createEntry(string memory _spec, string memory _value, string memory _ipfs) public {\n        require(bytes(_value).length > 0);\n        require(bytes(_ipfs).length > 0);\n        entryCount++;\n        entries[entryCount] = Entry(entryCount, _spec, _value, _ipfs, msg.sender);\n        emit EntryAdded(entryCount, _spec, _value, _ipfs, msg.sender);\n    }\n\n    function getOwnerOf(uint id) public view returns (address) {\n        return entries[id].owner;\n    }\n\n    function getEntryCount() public view returns (uint) {\n        return entryCount;\n    }\n\n    function reviewEntry(uint id, string memory _value) public {\n        require(bytes(_value).length > 0);\n        Entry memory entry = entries[id];\n        require(msg.sender == entry.owner);\n        entries[id] = Entry(id, entry.spec, _value, entry.ipfs, entry.owner);\n        emit EntryEdited(id, entry.spec, _value, entry.ipfs, entry.owner);\n    }\n\n    function getEntry(uint id) public view returns (string memory, string memory, string memory, address){\n        Entry memory entry = entries[id];\n        return (entry.spec, entry.value, entry.ipfs, entry.owner);\n    }\n}\n",
  "sourcePath": "/home/giacomo/Projects/Kepler/hackaton-be/contracts/Radici.sol",
  "compiler": {
    "name": "solc",
    "version": "0.8.3+commit.8d00100c.Emscripten.clang"
  },
  "schemaVersion": "3.4.16",
  "updatedAt": "2024-02-05T18:28:58.404Z",
  "networkType": "ethereum",
  "devdoc": {
    "kind": "dev",
    "methods": {},
    "version": 1
  },
  "userdoc": {
    "kind": "user",
    "methods": {},
    "version": 1
  }
}